{
  "contractName": "CarbonVoteX",
  "abi": [
    {
      "constant": true,
      "inputs": [
        {
          "name": "",
          "type": "bytes32"
        }
      ],
      "name": "polls",
      "outputs": [
        {
          "name": "startBlock",
          "type": "uint256"
        },
        {
          "name": "endBlock",
          "type": "uint256"
        },
        {
          "name": "pollId",
          "type": "bytes32"
        },
        {
          "name": "token",
          "type": "address"
        }
      ],
      "payable": false,
      "stateMutability": "view",
      "type": "function"
    },
    {
      "inputs": [
        {
          "name": "_master",
          "type": "address"
        }
      ],
      "payable": false,
      "stateMutability": "nonpayable",
      "type": "constructor"
    },
    {
      "constant": true,
      "inputs": [
        {
          "name": "_pollId",
          "type": "bytes32"
        }
      ],
      "name": "getPoll",
      "outputs": [
        {
          "name": "_startBlock",
          "type": "uint256"
        },
        {
          "name": "_endBlock",
          "type": "uint256"
        },
        {
          "name": "_tokenAddr",
          "type": "address"
        }
      ],
      "payable": false,
      "stateMutability": "view",
      "type": "function"
    },
    {
      "constant": true,
      "inputs": [
        {
          "name": "_pollId",
          "type": "bytes32"
        },
        {
          "name": "_voter",
          "type": "address"
        }
      ],
      "name": "getGasSent",
      "outputs": [
        {
          "name": "",
          "type": "uint256"
        }
      ],
      "payable": false,
      "stateMutability": "view",
      "type": "function"
    },
    {
      "constant": false,
      "inputs": [
        {
          "name": "_pollId",
          "type": "bytes32"
        }
      ],
      "name": "sendGas",
      "outputs": [],
      "payable": true,
      "stateMutability": "payable",
      "type": "function"
    },
    {
      "constant": false,
      "inputs": [
        {
          "name": "_pollId",
          "type": "bytes32"
        },
        {
          "name": "_startBlock",
          "type": "uint256"
        },
        {
          "name": "_endBlock",
          "type": "uint256"
        },
        {
          "name": "_tokenAddr",
          "type": "address"
        }
      ],
      "name": "register",
      "outputs": [],
      "payable": false,
      "stateMutability": "nonpayable",
      "type": "function"
    },
    {
      "constant": false,
      "inputs": [
        {
          "name": "_pollId",
          "type": "bytes32"
        },
        {
          "name": "_voter",
          "type": "address"
        },
        {
          "name": "_votes",
          "type": "uint256"
        }
      ],
      "name": "writeAvailableVotes",
      "outputs": [],
      "payable": false,
      "stateMutability": "nonpayable",
      "type": "function"
    },
    {
      "constant": true,
      "inputs": [
        {
          "name": "_pollId",
          "type": "bytes32"
        },
        {
          "name": "_voter",
          "type": "address"
        }
      ],
      "name": "readAvailableVotes",
      "outputs": [
        {
          "name": "",
          "type": "uint256"
        }
      ],
      "payable": false,
      "stateMutability": "view",
      "type": "function"
    },
    {
      "constant": false,
      "inputs": [
        {
          "name": "_pollId",
          "type": "bytes32"
        },
        {
          "name": "_choice",
          "type": "bytes32"
        },
        {
          "name": "_votes",
          "type": "uint256"
        }
      ],
      "name": "vote",
      "outputs": [],
      "payable": false,
      "stateMutability": "nonpayable",
      "type": "function"
    },
    {
      "constant": true,
      "inputs": [
        {
          "name": "_pollId",
          "type": "bytes32"
        },
        {
          "name": "_voter",
          "type": "address"
        },
        {
          "name": "_choice",
          "type": "bytes32"
        }
      ],
      "name": "getVotingResult",
      "outputs": [
        {
          "name": "",
          "type": "uint256"
        }
      ],
      "payable": false,
      "stateMutability": "view",
      "type": "function"
    },
    {
      "constant": true,
      "inputs": [
        {
          "name": "_pollId",
          "type": "bytes32"
        }
      ],
      "name": "pollExist",
      "outputs": [
        {
          "name": "",
          "type": "bool"
        }
      ],
      "payable": false,
      "stateMutability": "view",
      "type": "function"
    },
    {
      "constant": true,
      "inputs": [
        {
          "name": "_pollId",
          "type": "bytes32"
        }
      ],
      "name": "pollExpired",
      "outputs": [
        {
          "name": "",
          "type": "bool"
        }
      ],
      "payable": false,
      "stateMutability": "view",
      "type": "function"
    }
  ],
  "bytecode": "0x608060405234801561001057600080fd5b50604051602080610cac8339810180604052810190808051906020019092919050505080600160006101000a81548173ffffffffffffffffffffffffffffffffffffffff021916908373ffffffffffffffffffffffffffffffffffffffff16021790555050610c28806100846000396000f3006080604052600436106100af576000357c0100000000000000000000000000000000000000000000000000000000900463ffffffff1680630ebc055f146100b45780632cbbd738146100fd57806333540fb61461017c57806348e93325146101e157806355458f4a1461022a57806360c4e565146102b857806361cd8b071461032b5780637fc1a59e146103905780639e357f7f146103f5578063a71c81fb14610419578063c44d974014610474575b600080fd5b3480156100c057600080fd5b506100e360048036038101908080356000191690602001909291905050506104bd565b604051808215151515815260200191505060405180910390f35b34801561010957600080fd5b5061012c60048036038101908080356000191690602001909291905050506104e7565b604051808481526020018381526020018273ffffffffffffffffffffffffffffffffffffffff1673ffffffffffffffffffffffffffffffffffffffff168152602001935050505060405180910390f35b34801561018857600080fd5b506101df60048036038101908080356000191690602001909291908035906020019092919080359060200190929190803573ffffffffffffffffffffffffffffffffffffffff1690602001909291905050506105b8565b005b3480156101ed57600080fd5b506102106004803603810190808035600019169060200190929190505050610718565b604051808215151515815260200191505060405180910390f35b34801561023657600080fd5b506102596004803603810190808035600019169060200190929190505050610748565b6040518085815260200184815260200183600019166000191681526020018273ffffffffffffffffffffffffffffffffffffffff1673ffffffffffffffffffffffffffffffffffffffff16815260200194505050505060405180910390f35b3480156102c457600080fd5b506103156004803603810190808035600019169060200190929190803573ffffffffffffffffffffffffffffffffffffffff1690602001909291908035600019169060200190929190505050610798565b6040518082815260200191505060405180910390f35b34801561033757600080fd5b5061037a6004803603810190808035600019169060200190929190803573ffffffffffffffffffffffffffffffffffffffff169060200190929190505050610817565b6040518082815260200191505060405180910390f35b34801561039c57600080fd5b506103df6004803603810190808035600019169060200190929190803573ffffffffffffffffffffffffffffffffffffffff169060200190929190505050610890565b6040518082815260200191505060405180910390f35b61041760048036038101908080356000191690602001909291905050506108f5565b005b34801561042557600080fd5b506104726004803603810190808035600019169060200190929190803573ffffffffffffffffffffffffffffffffffffffff16906020019092919080359060200190929190505050610960565b005b34801561048057600080fd5b506104bb6004803603810190808035600019169060200190929190803560001916906020019092919080359060200190929190505050610a3d565b005b60008060008360001916600019168152602001908152602001600020600401544210159050919050565b60008060006104f4610bba565b60008086600019166000191681526020019081526020016000206080604051908101604052908160038201548152602001600482015481526020016005820154600019166000191681526020016006820160009054906101000a900473ffffffffffffffffffffffffffffffffffffffff1673ffffffffffffffffffffffffffffffffffffffff1673ffffffffffffffffffffffffffffffffffffffff16815250509050806000015181602001518260600151809050935093509350509193909250565b6105c0610bba565b600160009054906101000a900473ffffffffffffffffffffffffffffffffffffffff1673ffffffffffffffffffffffffffffffffffffffff163373ffffffffffffffffffffffffffffffffffffffff1614151561061c57600080fd5b61062585610718565b15151561063157600080fd5b428311801561063f57508284105b151561064a57600080fd5b608060405190810160405280858152602001848152602001866000191681526020018373ffffffffffffffffffffffffffffffffffffffff16815250905080600080876000191660001916815260200190815260200160002060008201518160030155602082015181600401556040820151816005019060001916905560608201518160060160006101000a81548173ffffffffffffffffffffffffffffffffffffffff021916908373ffffffffffffffffffffffffffffffffffffffff1602179055509050505050505050565b60008060010260008084600019166000191681526020019081526020016000206005015460001916119050919050565b60006020528060005260406000206000915090508060030154908060040154908060050154908060060160009054906101000a900473ffffffffffffffffffffffffffffffffffffffff16905084565b6000806000856000191660001916815260200190815260200160002060000160008473ffffffffffffffffffffffffffffffffffffffff1673ffffffffffffffffffffffffffffffffffffffff168152602001908152602001600020600083600019166000191681526020019081526020016000205490509392505050565b600061082283610718565b151561082d57600080fd5b600080846000191660001916815260200190815260200160002060010160008373ffffffffffffffffffffffffffffffffffffffff1673ffffffffffffffffffffffffffffffffffffffff16815260200190815260200160002054905092915050565b6000806000846000191660001916815260200190815260200160002060020160008373ffffffffffffffffffffffffffffffffffffffff1673ffffffffffffffffffffffffffffffffffffffff16815260200190815260200160002054905092915050565b34600080836000191660001916815260200190815260200160002060020160003373ffffffffffffffffffffffffffffffffffffffff1673ffffffffffffffffffffffffffffffffffffffff1681526020019081526020016000206000828254019250508190555050565b600160009054906101000a900473ffffffffffffffffffffffffffffffffffffffff1673ffffffffffffffffffffffffffffffffffffffff163373ffffffffffffffffffffffffffffffffffffffff161415156109bc57600080fd5b6109c583610718565b15156109d057600080fd5b80600080856000191660001916815260200190815260200160002060010160008473ffffffffffffffffffffffffffffffffffffffff1673ffffffffffffffffffffffffffffffffffffffff16815260200190815260200160002060008282540192505081905550505050565b610a4683610718565b8015610a585750610a56836104bd565b155b1515610a6357600080fd5b600081600080866000191660001916815260200190815260200160002060010160003373ffffffffffffffffffffffffffffffffffffffff1673ffffffffffffffffffffffffffffffffffffffff168152602001908152602001600020540310151515610acc57fe5b80600080856000191660001916815260200190815260200160002060010160003373ffffffffffffffffffffffffffffffffffffffff1673ffffffffffffffffffffffffffffffffffffffff1681526020019081526020016000206000828254039250508190555080600080856000191660001916815260200190815260200160002060000160003373ffffffffffffffffffffffffffffffffffffffff1673ffffffffffffffffffffffffffffffffffffffff1681526020019081526020016000206000846000191660001916815260200190815260200160002060008282540192505081905550505050565b608060405190810160405280600081526020016000815260200160008019168152602001600073ffffffffffffffffffffffffffffffffffffffff16815250905600a165627a7a7230582090c4a4dee1e778f0149cbba645dcc798926f0978d626fb79d2834933ce1282ae0029",
  "source": "pragma solidity ^0.4.23;\n\nimport \"./EIP20Token.sol\";\n\ncontract CarbonVoteX {\n    struct Poll {\n        // voter address => choice => votes\n        // choice can be hashed value of voting options\n        // e.g. sha3(\"choice #1\"), sha3(\"choice #2\")\n        mapping (address => mapping(bytes32 => uint)) votes;\n        mapping (address => uint) availableVotes;\n        //map voter's address to the amount of gas sent\n        mapping (address => uint) gasSentByVoter;\n        uint startBlock;\n        uint endBlock;\n        bytes32 pollId;\n        // the ERC20 token used\n        EIP20Token token;\n    }\n\n    // associative container of staking events\n    // _pollId => PollInfo\n    mapping (bytes32 => Poll) public polls;\n\n    // master's address\n    address private master;\n\n    /*\n     * Modifiers\n     */\n    modifier isMaster(){\n        require (msg.sender == master);\n        _;\n    }\n\n    // @param _pollId the id of poll\n    // returns the startBlock, endBlock and token address of the poll.\n    function getPoll (bytes32 _pollId) public view returns (uint _startBlock, uint _endBlock, address _tokenAddr){\n        Poll memory poll = polls[_pollId];\n        return (poll.startBlock, poll.endBlock, poll.token);\n\n    }\n\n    // @param _master address which is able to write votes\n    // the master address is owned by a backend server\n    constructor (address _master) public{\n        master = _master;\n    }\n\n    // @param _voter the address of the voter\n    // returns the amount of gas remining for _voter\n    function getGasSent(bytes32 _pollId, address _voter) public view returns (uint){\n        return polls[_pollId].gasSentByVoter[_voter];\n    }\n\n    // store the amount of gas sent by the voter \n    function sendGas(bytes32 _pollId) public payable {\n        polls[_pollId].gasSentByVoter[msg.sender] += msg.value;\n    }\n\n    // @param _pollId UUID (hash value) of a poll\n    // @param _startBlock starting block (unix timestamp) of the event\n    // @param _endBlock ending block (unix timestamp) of the event\n    // register a new poll\n    // Note that we do not allow re-registrations for the same UUID\n    function register(bytes32 _pollId, uint _startBlock, uint _endBlock, address _tokenAddr) public isMaster {\n        //Check if poll exists.\n        require (!pollExist(_pollId));\n        // check resonable endBlock and startBlock\n        require (_endBlock > now && _startBlock < _endBlock);\n        //Create a new poll and map the poll hashed value to the poll.\n        Poll memory poll = Poll({ startBlock: _startBlock,\n                                endBlock: _endBlock,\n                                pollId: _pollId,\n                                token: EIP20Token(_tokenAddr)});\n        polls[_pollId] = poll;\n    }\n\n    // @param pollId pollId (hash value) of a poll\n    // @param voter address of a voter    \n    // @param votes number of votes to write\n    // can only be called by the master address\n    function writeAvailableVotes(bytes32 _pollId, address _voter, uint _votes) public isMaster {\n        require (pollExist(_pollId));\n\n        polls[_pollId].availableVotes[_voter] += _votes; \n    }\n\n    // @param pollId pollId (hash value) of a poll\n    // @param voter address of a voter\n    // returns the number of available votes\n    function readAvailableVotes(bytes32 _pollId, address _voter) view public returns (uint){\n        require (pollExist(_pollId));\n\n        return polls[_pollId].availableVotes[_voter];\n    }\n\n    // @param _pollId UUID (hash value) of a poll\n    // @param _voteMeta vote meta data\n    // @param _votes number of votes to redeem for voteMeta\n    // After the poll finishes, and have already called registerVotes()\n    // vote for \"choice\"\n    // deduct the total number of votes available by votes\n    function vote(bytes32 _pollId, bytes32 _choice, uint _votes) public{\n        // poll must exits and not yet expired. \n        require (pollExist(_pollId) && !pollExpired(_pollId));\n        // voter cannot vote more votes than it has.\n        assert (polls[_pollId].availableVotes[msg.sender] - _votes >= 0);\n        // deduct voter's available votes from.\n        polls[_pollId].availableVotes[msg.sender] -= _votes;\n        // place votes to voter's choice. \n        polls[_pollId].votes[msg.sender][_choice] += _votes;\n    }\n\n    // @param pollId pollId (hash value) of a\n    // @param voter address of a voter\n    // @param choice the choice of the poll\n    // returns the number of votes for choice \"choice\" by \"voter\" in poll \"pollId\"\n    // typically called by other contracts\n    function getVotingResult(bytes32 _pollId, address _voter, bytes32 _choice) view public returns (uint) {\n        return polls[_pollId].votes[_voter][_choice];\n    }\n\n    // @param _pollId of the poll.\n    // returns whethere the poll exists;\n    function pollExist(bytes32 _pollId) view public returns(bool) {\n        return polls[_pollId].pollId > 0 ;\n    }\n\n    // @param _pollId of the poll.\n    // returns whethere the poll has expired\n    function pollExpired(bytes32 _pollId) view public returns (bool){\n        return now >= polls[_pollId].endBlock;\n    }\n\n}",
  "sourcePath": "/Users/Vincent/Desktop/Ventureum/CarbonVoteX/contracts/CarbonVoteX.sol",
  "compiler": {
    "name": "solc",
    "version": "0.4.23+commit.124ca40d.Emscripten.clang"
  },
  "schemaVersion": "2.0.0",
  "updatedAt": "2018-05-08T14:38:07.338Z"
}